{
  "contractName": "NovelNFT",
  "abi": [
    {
      "inputs": [
        {
          "internalType": "address",
          "name": "tokenAddress",
          "type": "address"
        }
      ],
      "stateMutability": "nonpayable",
      "type": "constructor"
    },
    {
      "anonymous": false,
      "inputs": [
        {
          "indexed": true,
          "internalType": "address",
          "name": "owner",
          "type": "address"
        },
        {
          "indexed": true,
          "internalType": "address",
          "name": "approved",
          "type": "address"
        },
        {
          "indexed": true,
          "internalType": "uint256",
          "name": "tokenId",
          "type": "uint256"
        }
      ],
      "name": "Approval",
      "type": "event"
    },
    {
      "anonymous": false,
      "inputs": [
        {
          "indexed": true,
          "internalType": "address",
          "name": "owner",
          "type": "address"
        },
        {
          "indexed": true,
          "internalType": "address",
          "name": "operator",
          "type": "address"
        },
        {
          "indexed": false,
          "internalType": "bool",
          "name": "approved",
          "type": "bool"
        }
      ],
      "name": "ApprovalForAll",
      "type": "event"
    },
    {
      "anonymous": false,
      "inputs": [
        {
          "indexed": true,
          "internalType": "address",
          "name": "from",
          "type": "address"
        },
        {
          "indexed": true,
          "internalType": "address",
          "name": "to",
          "type": "address"
        },
        {
          "indexed": true,
          "internalType": "uint256",
          "name": "tokenId",
          "type": "uint256"
        }
      ],
      "name": "Transfer",
      "type": "event"
    },
    {
      "inputs": [],
      "name": "LEVEL1_COST",
      "outputs": [
        {
          "internalType": "uint256",
          "name": "",
          "type": "uint256"
        }
      ],
      "stateMutability": "view",
      "type": "function"
    },
    {
      "inputs": [],
      "name": "LEVEL2_COST",
      "outputs": [
        {
          "internalType": "uint256",
          "name": "",
          "type": "uint256"
        }
      ],
      "stateMutability": "view",
      "type": "function"
    },
    {
      "inputs": [
        {
          "internalType": "address",
          "name": "to",
          "type": "address"
        },
        {
          "internalType": "uint256",
          "name": "tokenId",
          "type": "uint256"
        }
      ],
      "name": "approve",
      "outputs": [],
      "stateMutability": "nonpayable",
      "type": "function"
    },
    {
      "inputs": [
        {
          "internalType": "address",
          "name": "owner",
          "type": "address"
        }
      ],
      "name": "balanceOf",
      "outputs": [
        {
          "internalType": "uint256",
          "name": "",
          "type": "uint256"
        }
      ],
      "stateMutability": "view",
      "type": "function"
    },
    {
      "inputs": [
        {
          "internalType": "uint256",
          "name": "tokenId",
          "type": "uint256"
        }
      ],
      "name": "getApproved",
      "outputs": [
        {
          "internalType": "address",
          "name": "",
          "type": "address"
        }
      ],
      "stateMutability": "view",
      "type": "function"
    },
    {
      "inputs": [
        {
          "internalType": "address",
          "name": "owner",
          "type": "address"
        },
        {
          "internalType": "address",
          "name": "operator",
          "type": "address"
        }
      ],
      "name": "isApprovedForAll",
      "outputs": [
        {
          "internalType": "bool",
          "name": "",
          "type": "bool"
        }
      ],
      "stateMutability": "view",
      "type": "function"
    },
    {
      "inputs": [],
      "name": "name",
      "outputs": [
        {
          "internalType": "string",
          "name": "",
          "type": "string"
        }
      ],
      "stateMutability": "view",
      "type": "function"
    },
    {
      "inputs": [
        {
          "internalType": "uint256",
          "name": "tokenId",
          "type": "uint256"
        }
      ],
      "name": "ownerOf",
      "outputs": [
        {
          "internalType": "address",
          "name": "",
          "type": "address"
        }
      ],
      "stateMutability": "view",
      "type": "function"
    },
    {
      "inputs": [
        {
          "internalType": "address",
          "name": "from",
          "type": "address"
        },
        {
          "internalType": "address",
          "name": "to",
          "type": "address"
        },
        {
          "internalType": "uint256",
          "name": "tokenId",
          "type": "uint256"
        }
      ],
      "name": "safeTransferFrom",
      "outputs": [],
      "stateMutability": "nonpayable",
      "type": "function"
    },
    {
      "inputs": [
        {
          "internalType": "address",
          "name": "from",
          "type": "address"
        },
        {
          "internalType": "address",
          "name": "to",
          "type": "address"
        },
        {
          "internalType": "uint256",
          "name": "tokenId",
          "type": "uint256"
        },
        {
          "internalType": "bytes",
          "name": "data",
          "type": "bytes"
        }
      ],
      "name": "safeTransferFrom",
      "outputs": [],
      "stateMutability": "nonpayable",
      "type": "function"
    },
    {
      "inputs": [
        {
          "internalType": "address",
          "name": "operator",
          "type": "address"
        },
        {
          "internalType": "bool",
          "name": "approved",
          "type": "bool"
        }
      ],
      "name": "setApprovalForAll",
      "outputs": [],
      "stateMutability": "nonpayable",
      "type": "function"
    },
    {
      "inputs": [
        {
          "internalType": "bytes4",
          "name": "interfaceId",
          "type": "bytes4"
        }
      ],
      "name": "supportsInterface",
      "outputs": [
        {
          "internalType": "bool",
          "name": "",
          "type": "bool"
        }
      ],
      "stateMutability": "view",
      "type": "function"
    },
    {
      "inputs": [],
      "name": "symbol",
      "outputs": [
        {
          "internalType": "string",
          "name": "",
          "type": "string"
        }
      ],
      "stateMutability": "view",
      "type": "function"
    },
    {
      "inputs": [
        {
          "internalType": "uint256",
          "name": "tokenId",
          "type": "uint256"
        }
      ],
      "name": "tokenURI",
      "outputs": [
        {
          "internalType": "string",
          "name": "",
          "type": "string"
        }
      ],
      "stateMutability": "view",
      "type": "function"
    },
    {
      "inputs": [
        {
          "internalType": "address",
          "name": "from",
          "type": "address"
        },
        {
          "internalType": "address",
          "name": "to",
          "type": "address"
        },
        {
          "internalType": "uint256",
          "name": "tokenId",
          "type": "uint256"
        }
      ],
      "name": "transferFrom",
      "outputs": [],
      "stateMutability": "nonpayable",
      "type": "function"
    },
    {
      "inputs": [
        {
          "internalType": "uint8",
          "name": "level",
          "type": "uint8"
        }
      ],
      "name": "buyNFT",
      "outputs": [],
      "stateMutability": "nonpayable",
      "type": "function"
    }
  ],
  "bytecode": "0x60806040523480156200001157600080fd5b5060405162002d6f38038062002d6f83398181016040528101906200003791906200017b565b6040518060400160405280600881526020017f4e6f76656c4e46540000000000000000000000000000000000000000000000008152506040518060400160405280600481526020017f4e4e4654000000000000000000000000000000000000000000000000000000008152508160009081620000b4919062000427565b508060019081620000c6919062000427565b50505080600760006101000a81548173ffffffffffffffffffffffffffffffffffffffff021916908373ffffffffffffffffffffffffffffffffffffffff160217905550506200050e565b600080fd5b600073ffffffffffffffffffffffffffffffffffffffff82169050919050565b6000620001438262000116565b9050919050565b620001558162000136565b81146200016157600080fd5b50565b60008151905062000175816200014a565b92915050565b60006020828403121562000194576200019362000111565b5b6000620001a48482850162000164565b91505092915050565b600081519050919050565b7f4e487b7100000000000000000000000000000000000000000000000000000000600052604160045260246000fd5b7f4e487b7100000000000000000000000000000000000000000000000000000000600052602260045260246000fd5b600060028204905060018216806200022f57607f821691505b602082108103620002455762000244620001e7565b5b50919050565b60008190508160005260206000209050919050565b60006020601f8301049050919050565b600082821b905092915050565b600060088302620002af7fffffffffffffffffffffffffffffffffffffffffffffffffffffffffffffffff8262000270565b620002bb868362000270565b95508019841693508086168417925050509392505050565b6000819050919050565b6000819050919050565b60006200030862000302620002fc84620002d3565b620002dd565b620002d3565b9050919050565b6000819050919050565b6200032483620002e7565b6200033c62000333826200030f565b8484546200027d565b825550505050565b600090565b6200035362000344565b6200036081848462000319565b505050565b5b8181101562000388576200037c60008262000349565b60018101905062000366565b5050565b601f821115620003d757620003a1816200024b565b620003ac8462000260565b81016020851015620003bc578190505b620003d4620003cb8562000260565b83018262000365565b50505b505050565b600082821c905092915050565b6000620003fc60001984600802620003dc565b1980831691505092915050565b6000620004178383620003e9565b9150826002028217905092915050565b6200043282620001ad565b67ffffffffffffffff8111156200044e576200044d620001b8565b5b6200045a825462000216565b620004678282856200038c565b600060209050601f8311600181146200049f57600084156200048a578287015190505b62000496858262000409565b86555062000506565b601f198416620004af866200024b565b60005b82811015620004d957848901518255600182019150602085019450602081019050620004b2565b86831015620004f95784890151620004f5601f891682620003e9565b8355505b6001600288020188555050505b505050505050565b612851806200051e6000396000f3fe608060405234801561001057600080fd5b50600436106101005760003560e01c806370a0823111610097578063c87b56dd11610066578063c87b56dd146102ab578063e985e9c5146102db578063f3b1a5dc1461030b578063f65577621461032957610100565b806370a082311461022557806395d89b4114610255578063a22cb46514610273578063b88d4fde1461028f57610100565b806323b872dd116100d357806323b872dd1461019f57806342842e0e146101bb578063461772c6146101d75780636352211e146101f557610100565b806301ffc9a71461010557806306fdde0314610135578063081812fc14610153578063095ea7b314610183575b600080fd5b61011f600480360381019061011a919061198b565b610345565b60405161012c91906119d3565b60405180910390f35b61013d610427565b60405161014a9190611a7e565b60405180910390f35b61016d60048036038101906101689190611ad6565b6104b9565b60405161017a9190611b44565b60405180910390f35b61019d60048036038101906101989190611b8b565b6104ff565b005b6101b960048036038101906101b49190611bcb565b610616565b005b6101d560048036038101906101d09190611bcb565b610676565b005b6101df610696565b6040516101ec9190611c2d565b60405180910390f35b61020f600480360381019061020a9190611ad6565b61069b565b60405161021c9190611b44565b60405180910390f35b61023f600480360381019061023a9190611c48565b610721565b60405161024c9190611c2d565b60405180910390f35b61025d6107d8565b60405161026a9190611a7e565b60405180910390f35b61028d60048036038101906102889190611ca1565b61086a565b005b6102a960048036038101906102a49190611e16565b610880565b005b6102c560048036038101906102c09190611ad6565b6108e2565b6040516102d29190611a7e565b60405180910390f35b6102f560048036038101906102f09190611e99565b61094a565b60405161030291906119d3565b60405180910390f35b6103136109de565b6040516103209190611c2d565b60405180910390f35b610343600480360381019061033e9190611f12565b6109e3565b005b60007f80ac58cd000000000000000000000000000000000000000000000000000000007bffffffffffffffffffffffffffffffffffffffffffffffffffffffff1916827bffffffffffffffffffffffffffffffffffffffffffffffffffffffff1916148061041057507f5b5e139f000000000000000000000000000000000000000000000000000000007bffffffffffffffffffffffffffffffffffffffffffffffffffffffff1916827bffffffffffffffffffffffffffffffffffffffffffffffffffffffff1916145b80610420575061041f82610b2a565b5b9050919050565b60606000805461043690611f6e565b80601f016020809104026020016040519081016040528092919081815260200182805461046290611f6e565b80156104af5780601f10610484576101008083540402835291602001916104af565b820191906000526020600020905b81548152906001019060200180831161049257829003601f168201915b5050505050905090565b60006104c482610b94565b6004600083815260200190815260200160002060009054906101000a900473ffffffffffffffffffffffffffffffffffffffff169050919050565b600061050a8261069b565b90508073ffffffffffffffffffffffffffffffffffffffff168373ffffffffffffffffffffffffffffffffffffffff160361057a576040517f08c379a000000000000000000000000000000000000000000000000000000000815260040161057190612011565b60405180910390fd5b8073ffffffffffffffffffffffffffffffffffffffff16610599610bdf565b73ffffffffffffffffffffffffffffffffffffffff1614806105c857506105c7816105c2610bdf565b61094a565b5b610607576040517f08c379a00000000000000000000000000000000000000000000000000000000081526004016105fe906120a3565b60405180910390fd5b6106118383610be7565b505050565b610627610621610bdf565b82610ca0565b610666576040517f08c379a000000000000000000000000000000000000000000000000000000000815260040161065d90612135565b60405180910390fd5b610671838383610d35565b505050565b61069183838360405180602001604052806000815250610880565b505050565b606481565b6000806106a78361102e565b9050600073ffffffffffffffffffffffffffffffffffffffff168173ffffffffffffffffffffffffffffffffffffffff1603610718576040517f08c379a000000000000000000000000000000000000000000000000000000000815260040161070f906121a1565b60405180910390fd5b80915050919050565b60008073ffffffffffffffffffffffffffffffffffffffff168273ffffffffffffffffffffffffffffffffffffffff1603610791576040517f08c379a000000000000000000000000000000000000000000000000000000000815260040161078890612233565b60405180910390fd5b600360008373ffffffffffffffffffffffffffffffffffffffff1673ffffffffffffffffffffffffffffffffffffffff168152602001908152602001600020549050919050565b6060600180546107e790611f6e565b80601f016020809104026020016040519081016040528092919081815260200182805461081390611f6e565b80156108605780601f1061083557610100808354040283529160200191610860565b820191906000526020600020905b81548152906001019060200180831161084357829003601f168201915b5050505050905090565b61087c610875610bdf565b838361106b565b5050565b61089161088b610bdf565b83610ca0565b6108d0576040517f08c379a00000000000000000000000000000000000000000000000000000000081526004016108c790612135565b60405180910390fd5b6108dc848484846111d7565b50505050565b60606108ed82610b94565b60006108f7611233565b905060008151116109175760405180602001604052806000815250610942565b806109218461124a565b60405160200161093292919061228f565b6040516020818303038152906040525b915050919050565b6000600560008473ffffffffffffffffffffffffffffffffffffffff1673ffffffffffffffffffffffffffffffffffffffff16815260200190815260200160002060008373ffffffffffffffffffffffffffffffffffffffff1673ffffffffffffffffffffffffffffffffffffffff16815260200190815260200160002060009054906101000a900460ff16905092915050565b601481565b60018160ff16101580156109fb575060038160ff1611155b610a3a576040517f08c379a0000000000000000000000000000000000000000000000000000000008152600401610a31906122ff565b60405180910390fd5b600060018260ff1603610a505760009050610a6a565b60028260ff1603610a645760149050610a69565b606490505b5b6000600760009054906101000a900473ffffffffffffffffffffffffffffffffffffffff1690506000821115610b1c578073ffffffffffffffffffffffffffffffffffffffff166323b872dd3330856040518463ffffffff1660e01b8152600401610ad79392919061231f565b6020604051808303816000875af1158015610af6573d6000803e3d6000fd5b505050506040513d601f19601f82011682018060405250810190610b1a919061236b565b505b610b2533611318565b505050565b60007f01ffc9a7000000000000000000000000000000000000000000000000000000007bffffffffffffffffffffffffffffffffffffffffffffffffffffffff1916827bffffffffffffffffffffffffffffffffffffffffffffffffffffffff1916149050919050565b610b9d8161133f565b610bdc576040517f08c379a0000000000000000000000000000000000000000000000000000000008152600401610bd3906121a1565b60405180910390fd5b50565b600033905090565b816004600083815260200190815260200160002060006101000a81548173ffffffffffffffffffffffffffffffffffffffff021916908373ffffffffffffffffffffffffffffffffffffffff160217905550808273ffffffffffffffffffffffffffffffffffffffff16610c5a8361069b565b73ffffffffffffffffffffffffffffffffffffffff167f8c5be1e5ebec7d5bd14f71427d1e84f3dd0314c0f7b2291e5b200ac8c7c3b92560405160405180910390a45050565b600080610cac8361069b565b90508073ffffffffffffffffffffffffffffffffffffffff168473ffffffffffffffffffffffffffffffffffffffff161480610cee5750610ced818561094a565b5b80610d2c57508373ffffffffffffffffffffffffffffffffffffffff16610d14846104b9565b73ffffffffffffffffffffffffffffffffffffffff16145b91505092915050565b8273ffffffffffffffffffffffffffffffffffffffff16610d558261069b565b73ffffffffffffffffffffffffffffffffffffffff1614610dab576040517f08c379a0000000000000000000000000000000000000000000000000000000008152600401610da29061240a565b60405180910390fd5b600073ffffffffffffffffffffffffffffffffffffffff168273ffffffffffffffffffffffffffffffffffffffff1603610e1a576040517f08c379a0000000000000000000000000000000000000000000000000000000008152600401610e119061249c565b60405180910390fd5b610e278383836001611380565b8273ffffffffffffffffffffffffffffffffffffffff16610e478261069b565b73ffffffffffffffffffffffffffffffffffffffff1614610e9d576040517f08c379a0000000000000000000000000000000000000000000000000000000008152600401610e949061240a565b60405180910390fd5b6004600082815260200190815260200160002060006101000a81549073ffffffffffffffffffffffffffffffffffffffff02191690556001600360008573ffffffffffffffffffffffffffffffffffffffff1673ffffffffffffffffffffffffffffffffffffffff168152602001908152602001600020600082825403925050819055506001600360008473ffffffffffffffffffffffffffffffffffffffff1673ffffffffffffffffffffffffffffffffffffffff16815260200190815260200160002060008282540192505081905550816002600083815260200190815260200160002060006101000a81548173ffffffffffffffffffffffffffffffffffffffff021916908373ffffffffffffffffffffffffffffffffffffffff160217905550808273ffffffffffffffffffffffffffffffffffffffff168473ffffffffffffffffffffffffffffffffffffffff167fddf252ad1be2c89b69c2b068fc378daa952ba7f163c4a11628f55a4df523b3ef60405160405180910390a46110298383836001611386565b505050565b60006002600083815260200190815260200160002060009054906101000a900473ffffffffffffffffffffffffffffffffffffffff169050919050565b8173ffffffffffffffffffffffffffffffffffffffff168373ffffffffffffffffffffffffffffffffffffffff16036110d9576040517f08c379a00000000000000000000000000000000000000000000000000000000081526004016110d090612508565b60405180910390fd5b80600560008573ffffffffffffffffffffffffffffffffffffffff1673ffffffffffffffffffffffffffffffffffffffff16815260200190815260200160002060008473ffffffffffffffffffffffffffffffffffffffff1673ffffffffffffffffffffffffffffffffffffffff16815260200190815260200160002060006101000a81548160ff0219169083151502179055508173ffffffffffffffffffffffffffffffffffffffff168373ffffffffffffffffffffffffffffffffffffffff167f17307eab39ab6107e8899845ad3d59bd9653f200f220920489ca2b5937696c31836040516111ca91906119d3565b60405180910390a3505050565b6111e2848484610d35565b6111ee8484848461138c565b61122d576040517f08c379a00000000000000000000000000000000000000000000000000000000081526004016112249061259a565b60405180910390fd5b50505050565b606060405180602001604052806000815250905090565b60606000600161125984611513565b01905060008167ffffffffffffffff81111561127857611277611ceb565b5b6040519080825280601f01601f1916602001820160405280156112aa5781602001600182028036833780820191505090505b509050600082602001820190505b60011561130d578080600190039150507f3031323334353637383961626364656600000000000000000000000000000000600a86061a8153600a8581611301576113006125ba565b5b049450600085036112b8575b819350505050919050565b61132481600654611666565b6006600081548092919061133790612618565b919050555050565b60008073ffffffffffffffffffffffffffffffffffffffff166113618361102e565b73ffffffffffffffffffffffffffffffffffffffff1614159050919050565b50505050565b50505050565b60006113ad8473ffffffffffffffffffffffffffffffffffffffff16611684565b15611506578373ffffffffffffffffffffffffffffffffffffffff1663150b7a026113d6610bdf565b8786866040518563ffffffff1660e01b81526004016113f894939291906126b5565b6020604051808303816000875af192505050801561143457506040513d601f19601f820116820180604052508101906114319190612716565b60015b6114b6573d8060008114611464576040519150601f19603f3d011682016040523d82523d6000602084013e611469565b606091505b5060008151036114ae576040517f08c379a00000000000000000000000000000000000000000000000000000000081526004016114a59061259a565b60405180910390fd5b805181602001fd5b63150b7a0260e01b7bffffffffffffffffffffffffffffffffffffffffffffffffffffffff1916817bffffffffffffffffffffffffffffffffffffffffffffffffffffffff19161491505061150b565b600190505b949350505050565b600080600090507a184f03e93ff9f4daa797ed6e38ed64bf6a1f0100000000000000008310611571577a184f03e93ff9f4daa797ed6e38ed64bf6a1f0100000000000000008381611567576115666125ba565b5b0492506040810190505b6d04ee2d6d415b85acef810000000083106115ae576d04ee2d6d415b85acef810000000083816115a4576115a36125ba565b5b0492506020810190505b662386f26fc1000083106115dd57662386f26fc1000083816115d3576115d26125ba565b5b0492506010810190505b6305f5e1008310611606576305f5e10083816115fc576115fb6125ba565b5b0492506008810190505b612710831061162b576127108381611621576116206125ba565b5b0492506004810190505b6064831061164e5760648381611644576116436125ba565b5b0492506002810190505b600a831061165d576001810190505b80915050919050565b6116808282604051806020016040528060008152506116a7565b5050565b6000808273ffffffffffffffffffffffffffffffffffffffff163b119050919050565b6116b18383611702565b6116be600084848461138c565b6116fd576040517f08c379a00000000000000000000000000000000000000000000000000000000081526004016116f49061259a565b60405180910390fd5b505050565b600073ffffffffffffffffffffffffffffffffffffffff168273ffffffffffffffffffffffffffffffffffffffff1603611771576040517f08c379a00000000000000000000000000000000000000000000000000000000081526004016117689061278f565b60405180910390fd5b61177a8161133f565b156117ba576040517f08c379a00000000000000000000000000000000000000000000000000000000081526004016117b1906127fb565b60405180910390fd5b6117c8600083836001611380565b6117d18161133f565b15611811576040517f08c379a0000000000000000000000000000000000000000000000000000000008152600401611808906127fb565b60405180910390fd5b6001600360008473ffffffffffffffffffffffffffffffffffffffff1673ffffffffffffffffffffffffffffffffffffffff16815260200190815260200160002060008282540192505081905550816002600083815260200190815260200160002060006101000a81548173ffffffffffffffffffffffffffffffffffffffff021916908373ffffffffffffffffffffffffffffffffffffffff160217905550808273ffffffffffffffffffffffffffffffffffffffff16600073ffffffffffffffffffffffffffffffffffffffff167fddf252ad1be2c89b69c2b068fc378daa952ba7f163c4a11628f55a4df523b3ef60405160405180910390a461191b600083836001611386565b5050565b6000604051905090565b600080fd5b600080fd5b60007fffffffff0000000000000000000000000000000000000000000000000000000082169050919050565b61196881611933565b811461197357600080fd5b50565b6000813590506119858161195f565b92915050565b6000602082840312156119a1576119a0611929565b5b60006119af84828501611976565b91505092915050565b60008115159050919050565b6119cd816119b8565b82525050565b60006020820190506119e860008301846119c4565b92915050565b600081519050919050565b600082825260208201905092915050565b60005b83811015611a28578082015181840152602081019050611a0d565b60008484015250505050565b6000601f19601f8301169050919050565b6000611a50826119ee565b611a5a81856119f9565b9350611a6a818560208601611a0a565b611a7381611a34565b840191505092915050565b60006020820190508181036000830152611a988184611a45565b905092915050565b6000819050919050565b611ab381611aa0565b8114611abe57600080fd5b50565b600081359050611ad081611aaa565b92915050565b600060208284031215611aec57611aeb611929565b5b6000611afa84828501611ac1565b91505092915050565b600073ffffffffffffffffffffffffffffffffffffffff82169050919050565b6000611b2e82611b03565b9050919050565b611b3e81611b23565b82525050565b6000602082019050611b596000830184611b35565b92915050565b611b6881611b23565b8114611b7357600080fd5b50565b600081359050611b8581611b5f565b92915050565b60008060408385031215611ba257611ba1611929565b5b6000611bb085828601611b76565b9250506020611bc185828601611ac1565b9150509250929050565b600080600060608486031215611be457611be3611929565b5b6000611bf286828701611b76565b9350506020611c0386828701611b76565b9250506040611c1486828701611ac1565b9150509250925092565b611c2781611aa0565b82525050565b6000602082019050611c426000830184611c1e565b92915050565b600060208284031215611c5e57611c5d611929565b5b6000611c6c84828501611b76565b91505092915050565b611c7e816119b8565b8114611c8957600080fd5b50565b600081359050611c9b81611c75565b92915050565b60008060408385031215611cb857611cb7611929565b5b6000611cc685828601611b76565b9250506020611cd785828601611c8c565b9150509250929050565b600080fd5b600080fd5b7f4e487b7100000000000000000000000000000000000000000000000000000000600052604160045260246000fd5b611d2382611a34565b810181811067ffffffffffffffff82111715611d4257611d41611ceb565b5b80604052505050565b6000611d5561191f565b9050611d618282611d1a565b919050565b600067ffffffffffffffff821115611d8157611d80611ceb565b5b611d8a82611a34565b9050602081019050919050565b82818337600083830152505050565b6000611db9611db484611d66565b611d4b565b905082815260208101848484011115611dd557611dd4611ce6565b5b611de0848285611d97565b509392505050565b600082601f830112611dfd57611dfc611ce1565b5b8135611e0d848260208601611da6565b91505092915050565b60008060008060808587031215611e3057611e2f611929565b5b6000611e3e87828801611b76565b9450506020611e4f87828801611b76565b9350506040611e6087828801611ac1565b925050606085013567ffffffffffffffff811115611e8157611e8061192e565b5b611e8d87828801611de8565b91505092959194509250565b60008060408385031215611eb057611eaf611929565b5b6000611ebe85828601611b76565b9250506020611ecf85828601611b76565b9150509250929050565b600060ff82169050919050565b611eef81611ed9565b8114611efa57600080fd5b50565b600081359050611f0c81611ee6565b92915050565b600060208284031215611f2857611f27611929565b5b6000611f3684828501611efd565b91505092915050565b7f4e487b7100000000000000000000000000000000000000000000000000000000600052602260045260246000fd5b60006002820490506001821680611f8657607f821691505b602082108103611f9957611f98611f3f565b5b50919050565b7f4552433732313a20617070726f76616c20746f2063757272656e74206f776e6560008201527f7200000000000000000000000000000000000000000000000000000000000000602082015250565b6000611ffb6021836119f9565b915061200682611f9f565b604082019050919050565b6000602082019050818103600083015261202a81611fee565b9050919050565b7f4552433732313a20617070726f76652063616c6c6572206973206e6f7420746f60008201527f6b656e206f776e6572206f7220617070726f76656420666f7220616c6c000000602082015250565b600061208d603d836119f9565b915061209882612031565b604082019050919050565b600060208201905081810360008301526120bc81612080565b9050919050565b7f4552433732313a2063616c6c6572206973206e6f7420746f6b656e206f776e6560008201527f72206f7220617070726f76656400000000000000000000000000000000000000602082015250565b600061211f602d836119f9565b915061212a826120c3565b604082019050919050565b6000602082019050818103600083015261214e81612112565b9050919050565b7f4552433732313a20696e76616c696420746f6b656e2049440000000000000000600082015250565b600061218b6018836119f9565b915061219682612155565b602082019050919050565b600060208201905081810360008301526121ba8161217e565b9050919050565b7f4552433732313a2061646472657373207a65726f206973206e6f74206120766160008201527f6c6964206f776e65720000000000000000000000000000000000000000000000602082015250565b600061221d6029836119f9565b9150612228826121c1565b604082019050919050565b6000602082019050818103600083015261224c81612210565b9050919050565b600081905092915050565b6000612269826119ee565b6122738185612253565b9350612283818560208601611a0a565b80840191505092915050565b600061229b828561225e565b91506122a7828461225e565b91508190509392505050565b7f496e76616c6964206c6576656c00000000000000000000000000000000000000600082015250565b60006122e9600d836119f9565b91506122f4826122b3565b602082019050919050565b60006020820190508181036000830152612318816122dc565b9050919050565b60006060820190506123346000830186611b35565b6123416020830185611b35565b61234e6040830184611c1e565b949350505050565b60008151905061236581611c75565b92915050565b60006020828403121561238157612380611929565b5b600061238f84828501612356565b91505092915050565b7f4552433732313a207472616e736665722066726f6d20696e636f72726563742060008201527f6f776e6572000000000000000000000000000000000000000000000000000000602082015250565b60006123f46025836119f9565b91506123ff82612398565b604082019050919050565b60006020820190508181036000830152612423816123e7565b9050919050565b7f4552433732313a207472616e7366657220746f20746865207a65726f2061646460008201527f7265737300000000000000000000000000000000000000000000000000000000602082015250565b60006124866024836119f9565b91506124918261242a565b604082019050919050565b600060208201905081810360008301526124b581612479565b9050919050565b7f4552433732313a20617070726f766520746f2063616c6c657200000000000000600082015250565b60006124f26019836119f9565b91506124fd826124bc565b602082019050919050565b60006020820190508181036000830152612521816124e5565b9050919050565b7f4552433732313a207472616e7366657220746f206e6f6e20455243373231526560008201527f63656976657220696d706c656d656e7465720000000000000000000000000000602082015250565b60006125846032836119f9565b915061258f82612528565b604082019050919050565b600060208201905081810360008301526125b381612577565b9050919050565b7f4e487b7100000000000000000000000000000000000000000000000000000000600052601260045260246000fd5b7f4e487b7100000000000000000000000000000000000000000000000000000000600052601160045260246000fd5b600061262382611aa0565b91507fffffffffffffffffffffffffffffffffffffffffffffffffffffffffffffffff8203612655576126546125e9565b5b600182019050919050565b600081519050919050565b600082825260208201905092915050565b600061268782612660565b612691818561266b565b93506126a1818560208601611a0a565b6126aa81611a34565b840191505092915050565b60006080820190506126ca6000830187611b35565b6126d76020830186611b35565b6126e46040830185611c1e565b81810360608301526126f6818461267c565b905095945050505050565b6000815190506127108161195f565b92915050565b60006020828403121561272c5761272b611929565b5b600061273a84828501612701565b91505092915050565b7f4552433732313a206d696e7420746f20746865207a65726f2061646472657373600082015250565b60006127796020836119f9565b915061278482612743565b602082019050919050565b600060208201905081810360008301526127a88161276c565b9050919050565b7f4552433732313a20746f6b656e20616c7265616479206d696e74656400000000600082015250565b60006127e5601c836119f9565b91506127f0826127af565b602082019050919050565b60006020820190508181036000830152612814816127d8565b905091905056fea2646970667358221220de95b98fc66202a4f3a893141dce6f4c32621836672b42d5bf93df76bec8da5a64736f6c63430008130033",
  "immutableReferences": {},
  "source": "// SPDX-License-Identifier: UNLICENSED\r\npragma solidity ^0.8.0;\r\n\r\nimport \"../node_modules/@openzeppelin/contracts/token/ERC721/ERC721.sol\";\r\nimport \"../node_modules/@openzeppelin/contracts/token/ERC20/IERC20.sol\";\r\n\r\ncontract NovelNFT is ERC721 {\r\n    uint256 private _tokenIdCounter;\r\n    address private _tokenAddress;\r\n    uint256 public constant LEVEL1_COST = 20;\r\n    uint256 public constant LEVEL2_COST = 100;\r\n\r\n    constructor(address tokenAddress) ERC721(\"NovelNFT\", \"NNFT\") {\r\n        _tokenAddress = tokenAddress;\r\n    }\r\n\r\n    function mint(address to) internal {\r\n        _safeMint(to, _tokenIdCounter);\r\n        _tokenIdCounter++;\r\n    }\r\n\r\n    function buyNFT(uint8 level) external {\r\n        require(level >= 1 && level <= 3, \"Invalid level\");\r\n        uint256 tokenCost;\r\n        if (level == 1) {\r\n            tokenCost = 0;\r\n        } else if (level == 2) {\r\n            tokenCost = LEVEL1_COST;\r\n        } else {\r\n            tokenCost = LEVEL2_COST;\r\n        }\r\n\r\n        IERC20 token = IERC20(_tokenAddress);\r\n        if (tokenCost > 0) {\r\n            token.transferFrom(msg.sender, address(this), tokenCost);\r\n        }\r\n        mint(msg.sender);\r\n    }\r\n}\r\n",
  "sourcePath": "C:\\Users\\hirom\\narouNft\\narouNft\\contracts\\NovelNFT.sol",
  "compiler": {
    "name": "solc",
    "version": "0.8.19+commit.7dd6d404.Emscripten.clang"
  },
  "schemaVersion": "3.4.13",
  "updatedAt": "2023-04-06T01:16:45.727Z",
  "devdoc": {
    "events": {
      "Approval(address,address,uint256)": {
        "details": "Emitted when `owner` enables `approved` to manage the `tokenId` token."
      },
      "ApprovalForAll(address,address,bool)": {
        "details": "Emitted when `owner` enables or disables (`approved`) `operator` to manage all of its assets."
      },
      "Transfer(address,address,uint256)": {
        "details": "Emitted when `tokenId` token is transferred from `from` to `to`."
      }
    },
    "kind": "dev",
    "methods": {
      "approve(address,uint256)": {
        "details": "See {IERC721-approve}."
      },
      "balanceOf(address)": {
        "details": "See {IERC721-balanceOf}."
      },
      "getApproved(uint256)": {
        "details": "See {IERC721-getApproved}."
      },
      "isApprovedForAll(address,address)": {
        "details": "See {IERC721-isApprovedForAll}."
      },
      "name()": {
        "details": "See {IERC721Metadata-name}."
      },
      "ownerOf(uint256)": {
        "details": "See {IERC721-ownerOf}."
      },
      "safeTransferFrom(address,address,uint256)": {
        "details": "See {IERC721-safeTransferFrom}."
      },
      "safeTransferFrom(address,address,uint256,bytes)": {
        "details": "See {IERC721-safeTransferFrom}."
      },
      "setApprovalForAll(address,bool)": {
        "details": "See {IERC721-setApprovalForAll}."
      },
      "supportsInterface(bytes4)": {
        "details": "See {IERC165-supportsInterface}."
      },
      "symbol()": {
        "details": "See {IERC721Metadata-symbol}."
      },
      "tokenURI(uint256)": {
        "details": "See {IERC721Metadata-tokenURI}."
      },
      "transferFrom(address,address,uint256)": {
        "details": "See {IERC721-transferFrom}."
      }
    },
    "version": 1
  },
  "userdoc": {
    "kind": "user",
    "methods": {},
    "version": 1
  }
}